{
  "_format": "hh-sol-artifact-1",
  "contractName": "Manager",
  "sourceName": "contracts/Manager.sol",
  "abi": [
    {
      "anonymous": false,
      "inputs": [
        {
          "indexed": true,
          "internalType": "address",
          "name": "previousOwner",
          "type": "address"
        },
        {
          "indexed": true,
          "internalType": "address",
          "name": "newOwner",
          "type": "address"
        }
      ],
      "name": "OwnershipTransferred",
      "type": "event"
    },
    {
      "inputs": [],
      "name": "buy",
      "outputs": [],
      "stateMutability": "payable",
      "type": "function"
    },
    {
      "inputs": [],
      "name": "getOwner",
      "outputs": [
        {
          "internalType": "address",
          "name": "",
          "type": "address"
        }
      ],
      "stateMutability": "view",
      "type": "function"
    },
    {
      "inputs": [],
      "name": "owner",
      "outputs": [
        {
          "internalType": "address",
          "name": "",
          "type": "address"
        }
      ],
      "stateMutability": "view",
      "type": "function"
    },
    {
      "inputs": [
        {
          "internalType": "address",
          "name": "",
          "type": "address"
        }
      ],
      "name": "payments",
      "outputs": [
        {
          "internalType": "uint256",
          "name": "",
          "type": "uint256"
        }
      ],
      "stateMutability": "view",
      "type": "function"
    },
    {
      "inputs": [],
      "name": "renounceOwnership",
      "outputs": [],
      "stateMutability": "nonpayable",
      "type": "function"
    },
    {
      "inputs": [],
      "name": "totalPayments",
      "outputs": [
        {
          "internalType": "uint256",
          "name": "",
          "type": "uint256"
        }
      ],
      "stateMutability": "view",
      "type": "function"
    },
    {
      "inputs": [
        {
          "internalType": "address",
          "name": "newOwner",
          "type": "address"
        }
      ],
      "name": "transferOwnership",
      "outputs": [],
      "stateMutability": "nonpayable",
      "type": "function"
    },
    {
      "inputs": [],
      "name": "withdraw",
      "outputs": [],
      "stateMutability": "nonpayable",
      "type": "function"
    },
    {
      "stateMutability": "payable",
      "type": "receive"
    }
  ],
  "bytecode": "0x608060405234801561001057600080fd5b5061002d61002261003260201b60201c565b61003a60201b60201c565b6100fe565b600033905090565b60008060009054906101000a900473ffffffffffffffffffffffffffffffffffffffff169050816000806101000a81548173ffffffffffffffffffffffffffffffffffffffff021916908373ffffffffffffffffffffffffffffffffffffffff1602179055508173ffffffffffffffffffffffffffffffffffffffff168173ffffffffffffffffffffffffffffffffffffffff167f8be0079c531659141344cd1fd0a4f28419497f9722a3daafe3b4186f6b6457e060405160405180910390a35050565b61081c8061010d6000396000f3fe60806040526004361061007e5760003560e01c80638da5cb5b1161004e5780638da5cb5b14610116578063a6f2ae3a14610141578063e2982c211461014b578063f2fde38b146101885761008d565b80625b4487146100925780633ccfd60b146100bd578063715018a6146100d4578063893d20e8146100eb5761008d565b3661008d5761008b6101b1565b005b600080fd5b34801561009e57600080fd5b506100a7610265565b6040516100b4919061050d565b60405180910390f35b3480156100c957600080fd5b506100d261026b565b005b3480156100e057600080fd5b506100e96102c3565b005b3480156100f757600080fd5b506101006102d7565b60405161010d9190610569565b60405180910390f35b34801561012257600080fd5b5061012b6102e6565b6040516101389190610569565b60405180910390f35b6101496101b1565b005b34801561015757600080fd5b50610172600480360381019061016d91906105b5565b61030f565b60405161017f919061050d565b60405180910390f35b34801561019457600080fd5b506101af60048036038101906101aa91906105b5565b610327565b005b600034116101f4576040517f08c379a00000000000000000000000000000000000000000000000000000000081526004016101eb90610665565b60405180910390fd5b34600160003373ffffffffffffffffffffffffffffffffffffffff1673ffffffffffffffffffffffffffffffffffffffff168152602001908152602001600020600082825461024391906106b4565b92505081905550346002600082825461025c91906106b4565b92505081905550565b60025481565b6102736103aa565b61027b6102e6565b73ffffffffffffffffffffffffffffffffffffffff166108fc479081150290604051600060405180830381858888f193505050501580156102c0573d6000803e3d6000fd5b50565b6102cb6103aa565b6102d56000610428565b565b60006102e16102e6565b905090565b60008060009054906101000a900473ffffffffffffffffffffffffffffffffffffffff16905090565b60016020528060005260406000206000915090505481565b61032f6103aa565b600073ffffffffffffffffffffffffffffffffffffffff168173ffffffffffffffffffffffffffffffffffffffff160361039e576040517f08c379a00000000000000000000000000000000000000000000000000000000081526004016103959061075a565b60405180910390fd5b6103a781610428565b50565b6103b26104ec565b73ffffffffffffffffffffffffffffffffffffffff166103d06102e6565b73ffffffffffffffffffffffffffffffffffffffff1614610426576040517f08c379a000000000000000000000000000000000000000000000000000000000815260040161041d906107c6565b60405180910390fd5b565b60008060009054906101000a900473ffffffffffffffffffffffffffffffffffffffff169050816000806101000a81548173ffffffffffffffffffffffffffffffffffffffff021916908373ffffffffffffffffffffffffffffffffffffffff1602179055508173ffffffffffffffffffffffffffffffffffffffff168173ffffffffffffffffffffffffffffffffffffffff167f8be0079c531659141344cd1fd0a4f28419497f9722a3daafe3b4186f6b6457e060405160405180910390a35050565b600033905090565b6000819050919050565b610507816104f4565b82525050565b600060208201905061052260008301846104fe565b92915050565b600073ffffffffffffffffffffffffffffffffffffffff82169050919050565b600061055382610528565b9050919050565b61056381610548565b82525050565b600060208201905061057e600083018461055a565b92915050565b600080fd5b61059281610548565b811461059d57600080fd5b50565b6000813590506105af81610589565b92915050565b6000602082840312156105cb576105ca610584565b5b60006105d9848285016105a0565b91505092915050565b600082825260208201905092915050565b7f5061796d656e7420616d6f756e74206d7573742062652067726561746572207460008201527f68616e2030000000000000000000000000000000000000000000000000000000602082015250565b600061064f6025836105e2565b915061065a826105f3565b604082019050919050565b6000602082019050818103600083015261067e81610642565b9050919050565b7f4e487b7100000000000000000000000000000000000000000000000000000000600052601160045260246000fd5b60006106bf826104f4565b91506106ca836104f4565b92508282019050808211156106e2576106e1610685565b5b92915050565b7f4f776e61626c653a206e6577206f776e657220697320746865207a65726f206160008201527f6464726573730000000000000000000000000000000000000000000000000000602082015250565b60006107446026836105e2565b915061074f826106e8565b604082019050919050565b6000602082019050818103600083015261077381610737565b9050919050565b7f4f776e61626c653a2063616c6c6572206973206e6f7420746865206f776e6572600082015250565b60006107b06020836105e2565b91506107bb8261077a565b602082019050919050565b600060208201905081810360008301526107df816107a3565b905091905056fea2646970667358221220f169d5aca51c221e9c0e76531b62f3193a16d381174873aa0a37a8c1160ded6164736f6c63430008120033",
  "linkReferences": {},
  "deployedLinkReferences": {}
}